:020000040800F2
:1000000048080020CD01000809060008D5040008B2
:10001000B9050008CD0200080B1900080000000017
:10002000000000000000000000000000950B000828
:10003000D102000800000000050A0008D10C0008E9
:10004000E7010008E7010008E7010008E7010008F0
:10005000E7010008E7010008E7010008E7010008E0
:10006000E7010008E7010008E7010008E7010008D0
:10007000E7010008E7010008E7010008E7010008C0
:10008000E7010008E7010008E7010008E7010008B0
:10009000E7010008E7010008E7010008E7010008A0
:1000A000E7010008E7010008E7010008E701000890
:1000B000E70100082D10000845100008E7010008BE
:1000C000E7010008E7010008E7010008E701000870
:1000D000E7010008C9160008E7010008E701000869
:1000E000E7010008E7010008E7010008E701000850
:1000F000E7010008E7010008E7010008E701000840
:10010000E7010008E7010008E7010008E70100082F
:10011000E7010008E7010008E7010008E70100081F
:10012000E7010008E7010008E7010008E70100080F
:1001300000F002F800F03AF80AA090E8000C8244BF
:100140008344AAF10107DA4501D100F02FF8AFF29C
:10015000090EBAE80F0013F0010F18BFFB1A43F0A5
:1001600001031847D0230000F0230000103A24BFF9
:1001700078C878C1FAD8520724BF30C830C144BF0C
:1001800004680C607047000000230024002500264E
:10019000103A28BF78C1FBD8520728BF30C148BFEA
:1001A0000B6070471FB51FBD10B510BD00F038F8CB
:1001B0001146FFF7F7FF01F0CFFB00F056F803B44C
:1001C000FFF7F2FF03BC01F0A2FB000009488047E3
:1001D00009480047FEE7FEE7FEE7FEE7FEE7FEE729
:1001E000FEE7FEE7FEE7FEE704480549054A064B41
:1001F00070470000D50C00083101000848020020BB
:100200004808002048040020480400207047704738
:10021000704770477047000000487047E4010020B5
:100220007546FFF7F9FFAE4605006946534620F0D4
:100230000700854618B020B5FFF7D6FFBDE820407F
:100240004FF000064FF000074FF000084FF0000B92
:1002500021F00701AC46ACE8C009ACE8C009ACE845
:10026000C009ACE8C0098D46704710B50446AFF32D
:1002700000802046BDE81040FFF7A1BF2DE9F04106
:1002800000240025022000F069FC0444204601F00F
:10029000F5FC804600F07AFB074601F0D3FC0646E9
:1002A00001F086FB0546284601F0E8FC064620469C
:1002B00001F0E4FC0746044A314601F039FC2846C7
:1002C00001F0A4FBBDE8F0810000D04100BFFEE7D3
:1002D0007047000030B587B005460C46012108463E
:1002E00000F092FB0121042000F0AEFB0320ADF8EA
:1002F000000004208DF8030069461C4800F046F811
:1003000004A801F099F9ADF81050ADF814400020A0
:10031000ADF81600ADF8120004A94FF0804001F0CE
:1003200039F900231A4603214FF0804000F0C6FF40
:1003300001A801F04BF80A20ADF80C0001A9400714
:1003400000F0EEFF0121880700F0A2FE0122114615
:10035000900701F044F800214FF0804001F0EBF8E5
:100360000121880700F09AFE07B030BD0008014067
:1003700008B50090009A0A70009A120A4A70009A12
:10038000120C8A70009A120ECA7008BD2DE9F04155
:10039000024600250026002000230024002791F8B3
:1003A00003C00CF00F0591F803C00CF0100CBCF169
:1003B000000F03D091F802C04CEA050591F800C087
:1003C000BCF1000F31D0146800202BE04FF0010C7D
:1003D0000CFA00F3B1F800C00CEA03069E4220D1EB
:1003E00083004FF00F0C0CFA03F7BC4305FA03FC33
:1003F0004CEA040491F803C0BCF1280F06D14FF079
:10040000010C0CFA00FCC2F814C00AE091F803C019
:10041000BCF1480F05D14FF0010C0CFA00FCC2F8FA
:1004200010C0401C0828D1D31460B1F800C0BCF142
:10043000FF0F34DD546800202EE000F1080C4FF06F
:10044000010808FA0CF3B1F800C00CEA03069E425A
:1004500021D183004FF00F0C0CFA03F7BC4305FACF
:1004600003FC4CEA040491F803C0BCF1280F05D149
:1004700000F1080C08FA0CF8C2F8148091F803C0D7
:10048000BCF1480F07D100F1080C4FF0010808FA41
:100490000CF8C2F81080401C0828CED35460BDE888
:1004A000F08122B1012A06D0022A0CD107E043696B
:1004B0000B43436107E003690B43036103E0C36837
:1004C0004B40C36000BF00BF70470AB1016100E04C
:1004D0004161704700BFFEE710B510222021094896
:1004E00000F014F8012220210648FFF7DAFF10225D
:1004F0002021054800F00AF8012220210248FFF7D8
:10050000D0FF10BD000C014000180140F8B50446B2
:100510000E461546ADF800608DF8035003208DF8A7
:1005200002001E48844204D10121042000F08CFA0C
:100530002EE01B48844204D10121082000F084FAF7
:1005400026E01848844204D10121102000F07CFAF2
:100550001EE01548844204D10121202000F074FAE5
:1005600016E01248844204D10121402000F06CFAC8
:100570000EE00F48844204D10121802000F064FA8B
:1005800006E00C48844203D10121801500F05CFA9A
:1005900069462046FFF7FAFEF8BD0000000801405A
:1005A000000C0140001001400014014000180140FF
:1005B000001C01400020014000BFFEE708B50121FA
:1005C000082000F041FA4FF47040ADF80000102010
:1005D0008DF8030003208DF8020069460748FFF7F5
:1005E000D5FE0020064908600649C1F8B801044953
:1005F000083908600349C1F8B00108BD000C01408A
:10060000BC812142008021427047000070B500216A
:1006100000230F22C47804B3154C246804F4E0646A
:10062000C4F5E064210AC1F10403CA40447804FA25
:1006300003F184781440214309010E4C0678A1553A
:10064000047804F01F050124AC4005786D11AD005D
:1006500005F1E025C5F8004109E0047804F01F0524
:100660000124AC40044D0678761145F8264070BD53
:100670000CED00E000E400E080E100E0024901430D
:10068000024A1160704700000000FA050CED00E01E
:1006900070B500240EE00021204600F0E0F80025AF
:1006A00004E0002000F04AF9681CC5B2802DF8DB98
:1006B000601CC4B2082CEEDB70BD000008B501213F
:1006C000042000F0C1F914208DF8030003208DF8F8
:1006D00002002020ADF8000069460A48FFF756FEE8
:1006E0004020ADF8000069460648FFF74FFE0122A2
:1006F00020210448FFF7E9FE012240210148FFF7CD
:10070000E4FE08BD0008014070B50546002413E072
:100710008020204100EA050240210E48FFF7D5FE67
:10072000012220210B48FFF7D0FE0022202109489A
:10073000FFF7CBFE601CC4B2082CE9DB01222021AC
:100740000448FFF7C2FE002220210248FFF7BDFE49
:1007500070BD00000008014010B501224021094889
:10076000FFF7B3FE012220210648FFF7AEFE00226C
:1007700040210448FFF7A9FE002220210148FFF78D
:10078000A4FE10BD0008014010B50022402107481A
:10079000FFF79BFE012220210448FFF796FE01226D
:1007A00040210248FFF791FE10BD00000008014003
:1007B00070B5002406E0002500E06D1CB5F57A7FD9
:1007C000FBD3641CB4F57A7FF5D3FFF777FFAE2037
:1007D00000F0A4F8D52000F0A1F8802000F09EF8E9
:1007E000A82000F09BF83F2000F098F8D32000F0FC
:1007F00095F8002000F092F8402000F08FF8A1203A
:1008000000F08CF8C82000F089F8DA2000F086F8B3
:10081000122000F083F8812000F080F8CF2000F053
:100820007DF8D92000F07AF8F12000F077F8DB208D
:1008300000F074F8302000F071F8A42000F06EF899
:10084000A62000F06BF88D2000F068F8142000F06E
:1008500065F8AF2000F062F8FFF71AFF70BD70B5C1
:1008600005460C4645F0B00000F058F8102141EA6A
:10087000141000F053F804F00F0000F04FF870BDB2
:100880002DE9F04105460E461746721ED206110E9E
:100890006A1E5206100EFFF7E2FF002409E0A7F1DE
:1008A0002001134A02EB0111085D00F047F8601CBB
:1008B000C4B2082CF3DB721ED206110E6A1E01238D
:1008C00003EB4202D0B2FFF7CAFF00240BE0A7F10E
:1008D0002001074A02EB011204F10801505C00F00C
:1008E0002DF8601CC4B2082CF1DBBDE8F0810000DB
:1008F000421F00082DE9F04107460E461546002428
:1009000007E02A5D3019C1B23846FFF7B9FF601C15
:10091000C4B2285D0028F4D1BDE8F08110B50446CA
:10092000FFF71AFF7820FFF7EFFE0020FFF7ECFE3D
:100930002046FFF7E9FEFFF727FF10BD10B504467C
:10094000FFF70AFF7820FFF7DFFE4020FFF7DCFE0D
:100950002046FFF7D9FEFFF717FF10BD002008491A
:100960004860886088610748C8604FF07E50086121
:100970004FF07F504861044808600020C86170470C
:10098000C4010020000070410000D0412DE9F04179
:1009900004461B480168204601F054FA1849486093
:1009A0000A465168906901F0EBF8154988610A46DA
:1009B0009168506801F050FA07461148416938467D
:1009C00001F074F905460E4A9169106901F06EF95B
:1009D00007460B4A5168D06801F068F980463946ED
:1009E00001F0CEF80646294601F0CAF80449C8616C
:1009F0000846406888600846C069BDE8F08100008C
:100A0000C40100207047000029B1064AD2690243A0
:100A1000044BDA6104E0034AD2698243014BDA6194
:100A2000704700000010024029B1064A12690243D3
:100A3000044B1A6104E0034A12698243014B1A61B4
:100A4000704700000010024029B1064A9269024333
:100A5000044B9A6104E0034A92698243014B9A6114
:100A6000704700000010024029B1064AD2680243D4
:100A7000044BDA6004E0034AD2688243014BDA6037
:100A8000704700000010024030B500210022002411
:100A900000232D4D6D6805F00C0121B1042905D00E
:100AA000082923D105E0294D056022E0274D056086
:100AB0001FE0254D6D6805F47012234D6D6805F437
:100AC0008034022505EB92421CB9214D5543056047
:100AD0000BE01D4D6D6805F400351DB11C4D5543EF
:100AE000056002E0194D5543056002E0174D0560B1
:100AF00000BF00BF144D6D6805F0F0010909154DE8
:100B00006B5C0568DD4045600F4D6D6805F4E06184
:100B1000090A104D6B5C4568DD4085600A4D6D68C3
:100B200005F46051C90A0B4D6B5C4568DD40C5603A
:100B3000054D6D6805F44041890B074D6B5CC56838
:100B4000B5FBF3F5056130BD0010024000127A00DC
:100B500000093D0014000020240000200146022965
:100B600002D0032910D108E04FF08042928C10B2DD
:100B700000224FF080439A8408E0054A128810B2A0
:100B80000022034B1A8001E0002000BF00BF704725
:100B900024040040704710B500F002F810BD0000BA
:100BA0000CB50020019000903348006840F480307C
:100BB0003149086000BF3048006800F40030009000
:100BC0000198401C0190009818B90198B0F5A06FE9
:100BD000F1D12948006800F4003010B101200090E4
:100BE00001E0002000900098012843D123480068CC
:100BF00040F01000214908600846006820F003001A
:100C000008600846006840F0020008601A48406822
:100C1000194948600846406848600846406840F402
:100C2000806048600846406820F47C1048600846B0
:100C3000406840F4E81048600846006840F0807062
:100C4000086000BF0C48006800F000700028F9D070
:100C50000948406820F0030007494860084640689A
:100C600040F00200486000BF0348406800F00C00FC
:100C70000828F9D10CBD00000010024000200240FD
:100C800010B50446002C01DA644210BDB4F57A7F39
:100C900001DD40F2E734A1B2024800F04AFC00BF97
:100CA000F3E70000002C0140042808D14FF0E021B8
:100CB000096941F004014FF0E022116107E04FF0B3
:100CC000E021096921F004014FF0E0221161704731
:100CD0007047000010B51348006840F0010011494A
:100CE000086008464068104908400E4948600846B8
:100CF00000680E4908400B4908600846006820F467
:100D0000802008600846406820F4FE0048604FF4E8
:100D10001F008860FFF73FFF4FF000600449086044
:100D200010BD0000001002400000FFF8FFFFF6FEBB
:100D300008ED00E0F0B50C46154600220021068CB7
:100D40004FF6FE773E400684028B018C4FF60C7600
:100D500032407E1C06EA03162E433243104EB04248
:100D60000ED0104EB0420BD0B0F1804F08D00E4ED6
:100D7000B04205D00D4EB04202D00D4EB04206D169
:100D80004FF6FD76314044F00106314305E04FF661
:100D9000F576314044F00106314302830184F0BD11
:100DA000002C0140003401400004004000080040D5
:100DB000000C0040F0B50C4615460022002100262C
:100DC000078C4FF6EF7C07EA0C070784028B018C37
:100DD0004FF6FF7707EA041640F6FF473A404FF612
:100DE000FF7707EA03373A434FF6FF7707EA05270D
:100DF0003A43114FB8420ED0104FB8420BD0B0F169
:100E0000804F08D00E4FB84205D00E4FB84202D0E6
:100E10000D4FB84206D14FF6DF77394046F0100744
:100E2000394305E04FF65F77394044F01007394306
:100E300002830184F0BD0000002C01400034014019
:100E40000004004000080040000C0040F0B50C46D3
:100E50001546002200210026078C4FF6FF6C07EA9A
:100E60000C070784828B018C4FF6FF7707EA042674
:100E70004FF60C773A404FF6FF7707EA03172F43F8
:100E80003A43114FB8420ED0104FB8420BD0B0F1D8
:100E9000804F08D00E4FB84205D00E4FB84202D056
:100EA0000D4FB84206D14FF6FF57394046F48077D0
:100EB000394305E04FF2FF57394044F48077394316
:100EC00082830184F0BD0000002C01400034014009
:100ED0000004004000080040000C0040F0B50C4643
:100EE0001546002200210026078C4EF6FF7C07EAFB
:100EF0000C070784828B018C4FF6FF7707EA0436D4
:100F000040F6FF473A404FF6FF7707EA05273A4396
:100F10004FF6FF7707EA03373A43114FB8420ED036
:100F2000104FB8420BD0B0F1804F08D00E4FB842EE
:100F300005D00E4FB84202D00D4FB84206D14DF643
:100F4000FF77394046F48057394305E047F6FF57AD
:100F5000394044F48057394382830184F0BD000056
:100F6000002C014000340140000400400008004013
:100F7000000C004030B589B004460D460121C8027E
:100F8000FFF762FD01210420FFF75EFD4FF41060C2
:100F9000ADF8200018208DF8230003208DF82200E2
:100FA00008A92048FFF7F2F9ADF81850ADF8144041
:100FB0000020ADF81A00ADF8160005A91A4800F097
:100FC000E9FA6020ADF804000020ADF80A00012025
:100FD000ADF806000420ADF808000020ADF81000C0
:100FE000ADF81200ADF80C0001A90F4800F000FAAE
:100FF00001A90D4800F052FA08210B4800F044FA0C
:101000000821094800F088FA0121074800F034F867
:101010000121054800F04EF80121034800F03EF898
:1010200009B030BD00080140002C014010B501217D
:10103000034800F064F90121014800F02CF810BDCC
:101040000004004010B50121094800F058F968B1CA
:10105000FFF714F90121064800F01DF80548006863
:1010600008B9012000E000200249086010BD00001E
:10107000000800409401234221B1028842F080021E
:10108000028004E002884FF67F731A4002807047A6
:10109000CA4302827047CA430282704721B1028864
:1010A00042F00102028004E002884FF6FE731A400B
:1010B0000280704731B1B0F8442042F40042A0F8F9
:1010C000442005E0B0F84420C2F30E02A0F844200A
:1010D0007047000010B504466848844208D10121D9
:1010E000C014FFF7C1FC0021E014FFF7BDFCC4E011
:1010F000B4F1804F08D101210846FFF795FC00218B
:101100000120FFF791FCB8E05D48844208D101213D
:101110000220FFF789FC00210220FFF785FCACE0EC
:101120005848844208D101210420FFF77DFC0021AA
:101130000420FFF779FCA0E05348844208D1012144
:101140000820FFF771FC00210820FFF76DFC94E0F8
:101150004E48844208D101211020FFF765FC002190
:101160001020FFF761FC88E04948844208D1012142
:101170002020FFF759FC00212020FFF755FC7CE0E0
:101180004448844208D101214014FFF76DFC00213E
:101190006014FFF769FC70E03F48844209D10121E7
:1011A000C804FFF761FC00214FF40020FFF75CFC4E
:1011B00063E03A48844209D101210805FFF754FC55
:1011C00000214FF48010FFF74FFC56E03448844272
:1011D00009D101214805FFF747FC00214FF4001019
:1011E000FFF742FC49E02F48844208D1012140200A
:1011F000FFF71AFC00214020FFF716FC3DE02A48CB
:10120000844208D101218020FFF70EFC00218020BC
:10121000FFF70AFC31E02548844208D101218015FE
:10122000FFF702FC0021A015FFF7FEFB25E0204898
:10123000844209D101210804FFF716FC00214FF474
:101240008030FFF711FC18E01A48844209D10121CF
:101250004804FFF709FC00214FF40030FFF704FCBD
:101260000BE01548844208D101218804FFF7FCFBFC
:1012700000214FF48020FFF7F7FB10BD002C014048
:101280000004004000080040000C00400010004036
:101290000014004000340140004C01400050014067
:1012A0000054014000180040001C00400020004095
:1012B000004001400044014000480140F0B50C46A8
:1012C00015461E460021002200230189028B038C53
:1012D0004FF6F877394021434FF6FC473A4040F249
:1012E00001173A434FF6DD773B404FF6FF7707EAA9
:1012F00006172F433B43018102830384F0BD30B5C1
:101300000246002000230024158A05EA010395897E
:1013100005EA010413B10CB1012000E0002030BD4A
:1013200070B505460C46244885420ED023488542B8
:101330000BD0B5F1804F08D02148854205D0214817
:10134000854202D02048854200D100E000BF2088BD
:1013500050B92389A28861882846FFF7EBFCE18811
:10136000284600F0EAF825E0208804280AD12389DD
:10137000A28861882846FFF71DFDE188284600F015
:10138000E5F817E0208808280AD12389A288618817
:101390002846FFF75BFDE188284600F0E4F809E005
:1013A0002389A28861882846FFF798FDE1882846AE
:1013B00000F0E2F870BD0000002C01400034014054
:1013C0000004004000080040000C004000210180A3
:1013D0004180012181800021C180018170471AB1C3
:1013E00083890B43838102E083898B438381704728
:1013F00070B5002400220023058C4FF6FE763540A0
:101400000584028C8388048B4FF68F752C40B51EA3
:101410002C400D882C43751E2A400D892A434D8887
:101420002A43144DA8420BD0134DA84208D0134DA7
:10143000A84205D0124DA84202D0124DA84213D1A5
:101440004FF6F7752A404D892A434FF6FB752A401F
:101450008D882A434FF6FF652B404FF6FF552B40F2
:101460008D892B43CD892B4383800483CD8885864A
:10147000028470BD002C0140003401400040014056
:1014800000440140004801400A460021018B4FF60C
:10149000F7731940114301837047000070B50022B3
:1014A00000230024058C4EF6FF7635400584038C1E
:1014B0008488828B48F6FF752A404FF6FF452A4004
:1014C0000D884FF6FF7606EA05252A434DF6FF758F
:1014D0002B400D8906EA05352B434D8806EA053574
:1014E0002B430B4DA84202D00A4DA84208D14BF61F
:1014F000FF752C408D894FF6FF7606EA85152C4343
:1015000084808283CD88A0F84050038470BD0000A1
:10151000002C0140003401400A460021818B4FF22B
:10152000FF7319404FF6FF7303EA022319438183C7
:1015300070478186704781847047028B4FF6F37342
:101540001A400283028B0A4302837047028B4FF2D8
:10155000FF331A400283028B4FF6FF7303EA012325
:101560001A4302837047828B4FF6F3731A408283CB
:10157000828B0A4382837047828B4FF2FF331A407B
:101580008283828B4FF6FF7303EA01231A4382831F
:1015900070470000002202881D4B98420ED01D4B60
:1015A00098420BD0B0F1804F08D01B4B984205D029
:1015B0001A4B984202D01A4B984204D14FF68F73BF
:1015C0001A404B881A43174B984207D0164B984243
:1015D00004D04FF6FF431A40CB881A4302808B8811
:1015E00083850B8803850A4B98420BD0094B9842A0
:1015F00008D00E4B984205D00D4B984202D00D4BAF
:10160000984201D10B7A0386012383827047000040
:10161000002C01400034014000040040000800405C
:10162000000C004000100040001400400040014049
:1016300000440140004801404FF6FF7181800021C5
:101640000180C18041800172704700007FB504466F
:101650000D4601210420FFF7D7F901210846FFF7C5
:10166000F3F91848FFF736FDADF80850ADF804401F
:101670000020ADF80600ADF80A0001A91148FFF7F7
:1016800089FF1E208DF8000002208DF80100012046
:101690008DF802008DF803006846FEF7B7FF0121C0
:1016A0000848FFF7F5FC01210648FFF7F4FC01228A
:1016B00011460448FFF793FE01210248FFF7EEFCB4
:1016C0007FBD00000008004010B540F225511D48C4
:1016D00000F057F810B31B4800F00EF9C4B21A48D6
:1016E000008800F40040C8B91748008800F4804022
:1016F00060B10A2C03D000201349088020E0124872
:10170000008840F400401049088019E00D2C06D1F3
:101710000D48008840F480400B49088010E00A48DA
:101720000088C0F30D0009490C5407480088401C8C
:101730000549088008460088C72801DD0020088088
:1017400010BD0000003801403000002034000020AF
:1017500021B1828942F40052828104E082894DF6EF
:10176000FF731A408281704702460020B1F5007F66
:1017700000D100BF13880B400BB1012000E0002016
:10178000704770B50246002400230025002040F673
:101790006A16B14200D100BFC1F3421501F01F0328
:1017A000012606FA03F3012D02D19689334006E0A3
:1017B000022D02D1168A334001E0968A33400C1282
:1017C000012606FA04F41688344013B10CB1012046
:1017D00000E0002070BDF0B503460024002600257F
:1017E000002040F66A17B94200D100BF1846C1F385
:1017F000421401F01F06012707FA06F5012C01D15A
:101800000C3004E0022C01D1103000E014301AB189
:1018100007682F43076002E00768AF430760F0BD29
:101820002DE9F04786B005460E460024A24600BFCB
:10183000A1460027B08900B100BF2F462C8A4CF684
:10184000FF700440F08804432C82AC894EF6F310FC
:101850000440B08831890843718908430443AC814E
:10186000AC8A4FF6FF400440B0890443AC8201A823
:10187000FFF70AF91F48874202D1DDF810A001E006
:10188000DDF80CA0A88900F4004040B10AEBCA00C2
:1018900000EB0A1031684900B0FBF1F807E00AEBF1
:1018A000CA0000EB0A1031688900B0FBF1F864202F
:1018B000B8FBF0F004012009642101FB1089A8891C
:1018C00000F4004040B1322000EBC900B0FBF1F061
:1018D00000F00700044308E0322000EB0910642107
:1018E000B0FBF1F000F00F0004432C8106B0BDE81E
:1018F000F08700000038014001468888C0F30800E6
:101900007047C1F308028280704700BFFEE700BF46
:101910007047000010B56FF00400FFF7C5F90A48E2
:1019200000680A49B0FBF1F00949087008460078E0
:1019300000EB4001C1EBC0104FF6FF7101EAC0009F
:101940000449088010BD00000000002000127A0049
:10195000280000202A0000204FF4A060FEF78EFE31
:101960004FF4E13000F094F8FEF7B6FDFFF7D2FF38
:10197000FEF71EFF632141F61F40FFF767FEFEF7EB
:101980001DFE63214720FFF7F5FA4FF6FF71002097
:10199000FEF7A0FCFEF7E2FF03A201210846FEF7D6
:1019A000A9FF00BFFEE700007370656564000000DA
:1019B00001460020642901DD63200DE011F1640F70
:1019C00002DA6FF0620007E011F10A0F03DD0A2965
:1019D00001DA002000E008467047000000200349BB
:1019E000086001200249C1F8BC017047B88121425A
:1019F0000080214201200349086000200249C1F80B
:101A0000BC017047B88121420080214210B50446D4
:101A1000002C05DD2046FFF733F9FFF7EBFF0CE064
:101A2000002C05DA6042FFF72BF9FFF7D7FF04E03F
:101A30000020FFF725F900F001F810BD0020034950
:101A400008600349C1F8BC0170470000B881214219
:101A50000080214270B505460E46002404E0285D52
:101A600000F006F8601C84B2B442F8DB70BD0000E0
:101A700010B5044621460548FFF743FF00BF80210B
:101A80000248FFF771FE0028F9D010BD0038014070
:101A900010B586B00446012144F20400FEF7D4FFDD
:101AA0004FF40070ADF8140003208DF816001820D4
:101AB0008DF8170005A91C48FEF768FC4FF48060FC
:101AC000ADF8140004208DF8170005A91648FEF79C
:101AD0005DFC25208DF8000003208DF801008DF8B5
:101AE000020001208DF803006846FEF78FFD019487
:101AF0000020ADF80800ADF80A00ADF80C00ADF814
:101B000010000C20ADF80E0001A90848FFF788FE70
:101B1000012240F225510548FFF75DFE01210348EF
:101B2000FFF716FE06B010BD000801400038014066
:101B30007CB506460C461546002001900FA00068B3
:101B4000009001A93046FEF713FC042101A8FFF71D
:101B500081FF01A92046FEF70BFC042101A8FFF735
:101B600079FF01A92846FEF703FC042101A8FFF72D
:101B700071FF04216846FFF76DFF7CBD0000807F88
:101B800090EA010F48BF81F0004100F16C81421AD8
:101B90003CBF801A89184FEAD0524FF07F4C1CEAA4
:101BA000410FA2EBD15318BF9CEA026F00F03B80BB
:101BB0004FF0004C4CEA00204CEA012121FA03FCD2
:101BC00010EB0C0C1ED202F1FF325FEA1C2040EB3E
:101BD000C25038BF70471CF07F0F4FEA400C18BF4F
:101BE000BCF17F4F38BF7047C3F12003994008BF55
:101BF00020F00100BCF17F4F38BF7047A0F1C0401A
:101C000000F01BB94FEA3C00000A40EBC25028BF6D
:101C10001CF0FF0F4FEA400CE6D018BFBCF17F4F1D
:101C200038BF7047EAE79CEA026F05D010EA5C0F04
:101C300008BF00F00040704710B500F0B8F800BFD2
:101C400064FBBE3E41000B0ED3F19E0208D950F456
:101C500000034FEA032323FA02F048BF40427047D3
:101C600010B500F0A4F800BF49922480002070470E
:101C70006FF0004282EA20007047000010F000413F
:101C800048BF4042B0FA80F310FA03F2C3F19D035B
:101C90000BD051EAC35101EB1220530638BF7047F5
:101CA00000F1010008BF20F0010070474FF47F0CE5
:101CB0001CEAD0121EBF1CEAD11392EA0C0F93EA61
:101CC0000C0F00F0478090EA010F48BF42F4807289
:101CD0004FF0004C4CEA00204CEA012102EB0302D9
:101CE000A0FB0113A2F50002002918BF43F0010375
:101CF0005B0028BF4FEA330342EB22425FEA132C1A
:101D00004CEBC2502EBFBCEB436FB2F57C0F70475B
:101D10004FEA036CBCF1004F08BF20F00100B2F5A0
:101D20007C0F38BF70470BD582F0FF0212F5803F61
:101D3000C8BF704700F1C040D8BF00F000407047F6
:101D400000F5000C5FEA4C0C48BF7047B0F1C04092
:101D500000F073B890EA010F0CEAD11348BF42F4C7
:101D60008072624538BF634504D280EA010000F00A
:101D70000040704710B500F01AF800BF8900013E1E
:101D800000F007B800F009B85FEA410C5FEA1C6C8C
:101D900008D080EA010000F050B85FEA400C5FEA2A
:101DA0001C6CF6D14FF00040A0F5800070470EF19A
:101DB000020E2EF0030E5EF8044B244204D44FEAC8
:101DC0004102B2F17F4F11D84FEA4003B3F17F4F88
:101DD0000CD80ED14FEAD07CB2F17F4F0CEB4C0CFB
:101DE0000CF1020C08BF4CEBD17C04E04FF0080C66
:101DF00001E04FEAD17C0CEB4C0324FA03F404F02D
:101E00000704B4F1040C06D20EEB840CBDE81040BC
:101E10004CF0010C6047DFE80CF0070802024FF0BD
:101E20000040A0F5800010BD0846420018BFD2F166
:101E3000807288BF00F0004010BDFF2141EAD05001
:101E4000C005704780F0004090EA010F7FF59FAE1B
:101E500081F0004100F007B890EA010F48BF81F01F
:101E600000413FF594AE421A04D882F00042A0EB44
:101E7000020011444FEAD0524FF07F4C1CEA410F50
:101E8000A2EBD15318BF9CEA026F4AD04FF0004C2E
:101E90004CEA00204CEA012121FA03FCB0EB0C0CC7
:101EA0000FD412F0FE0F36D05FEA4C001DD50012A1
:101EB00040EBC25038BF70471CF03F0F18BF70474F
:101EC0000BE0A2F101025FEA1C2040EBC25038BFD8
:101ED00070471CF07F0F18BF7047C3F12003994073
:101EE00014BF401E20F00100704780084FEA122303
:101EF00008BF7047B0FA80FCA2EB0C02CCF1280CB2
:101F000060FA0CF093EA122F04BF00EBC250704746
:101F10004FEAC3707047130A5FEADC1008BF7047CE
:101F2000F6E79CEA026F04D010EA5C0F08BF0020BD
:101F3000704710B5FFF73BFF40DFF63E81F00040F1
:101F400070470000000000000000000000000000DA
:101F50000000000000F80000000000000033300026
:101F6000000000100C06100C06000000000000002D
:101F7000000040C07840C0784000043F04043F04A3
:101F80000400007088FC08300000001820FF211EAB
:101F90000000F008F000E018000000211C031E21E2
:101FA0001E0000F00888700000001E21232419275D
:101FB000211010160E0000000000000000000000BC
:101FC0000000000000E018040200000000071820D4
:101FD000400000020418E000000000402018070044
:101FE0000000404080F0804040000202010F0102EA
:101FF0000200000000F0000000000101011F0101CB
:102000000100000000000000000080B0700000002F
:1020100000000000000000000000000101010101BB
:10202000010100000000000000000030300000004E
:102030000000000000008060180400601806010025
:10204000000000E010080810E000000F1020201031
:102050000F00001010F8000000000020203F20209A
:102060000000007008080888700000302824222131
:1020700030000030088888483000001820202011E7
:102080000E000000C02010F8000000070424243FC8
:10209000240000F808888808080000192120201171
:1020A0000E0000E0108888180000000F1120201199
:1020B0000E0000380808C83808000000003F000083
:1020C00000000070880808887000001C222121226E
:1020D0001C0000E010080810E0000000312222116E
:1020E0000F00000000C0C000000000000030300001
:1020F0000000000000800000000000008060000080
:1021000000000000804020100800000102040810B8
:1021100020004040404040404000040404040404C7
:102120000400000810204080000000201008040275
:102130000100007048080808F00000000030360177
:102140000000C030C828E810E00007182724231436
:102150000B000000C038E0000000203C23020227F2
:10216000382008F8888888700000203F202020113F
:102170000E00C0300808080838000718202020107A
:10218000080008F808080810E000203F2020201070
:102190000F0008F88888E8081000203F202023203E
:1021A000180008F88888E8081000203F2000030085
:1021B0000000C03008080838000007182020221E40
:1021C000020008F808000008F808203F210101215A
:1021D0003F20000808F8080800000020203F2020C9
:1021E000000000000808F8080800C08080807F0018
:1021F000000008F888C028180800203F2001263871
:10220000200008F8080000000000203F20202020C7
:10221000300008F8F800F8F80800203F003F003FC1
:10222000200008F830C00008F808203F20000718F8
:102230003F00E01008080810E0000F1020202010D8
:102240000F0008F808080808F000203F21010101EC
:102250000000E01008080810E0000F18242438508F
:102260004F0008F8888888887000203F2000030C01
:10227000302000708808080838000038202121220A
:102280001C00180808F8080818000000203F20006B
:10229000000008F808000008F808001F202020208F
:1022A0001F000878880000C83808000007380E01B1
:1022B0000000F80800F80008F800033C0700073C9D
:1022C0000300081868808068180820302C03032C4D
:1022D00030200838C800C83808000000203F20001F
:1022E000000010080808C8380800203826212020DF
:1022F0001800000000FE020202000000007F4040C3
:102300004000000C30C00000000000000001063852
:10231000C00000020202FE000000004040407F00BA
:10232000000000000402020204000000000000009F
:10233000000000000000000000008080808080809D
:102340008080000202040000000000000000000085
:1023500000000000808080800000001924222222DA
:102360003F2008F8008080000000003F112020116D
:102370000E000000008080800000000E1120202050
:102380001100000000808088F800000E112020104D
:102390003F200000808080800000001F2222222237
:1023A0001300008080F0888888180020203F2020BB
:1023B00000000000808080808000006B94949493E3
:1023C000600008F8008080800000203F210000208D
:1023D0003F2000809898000000000020203F20202F
:1023E0000000000000809898000000C08080807F7E
:1023F000000008F8000080808000203F24022D307B
:102400002000000808F8000000000020203F2020E5
:1024100000008080808080808000203F20003F205E
:10242000003F8080008080800000203F210000204D
:102430003F200000808080800000001F202020209E
:102440001F00808000808000000080FFA1202011FC
:102450000E000000008080808000000E112020A06F
:10246000FF80808080008080800020203F2120002D
:102470000100000080808080800000332424242418
:102480001900008080E0808000000000001F2020F4
:1024900000008080000000808000001F20202010AD
:1024A0003F20808080000080808000010E30080680
:1024B000010080800080008080800F300C030C3091
:1024C0000F0000808000808080000020312E0E31BF
:1024D0002000808080000080808080818E701806BF
:1024E000010000808080808080000021302C22212B
:1024F000300000000000807C020200000000003F6D
:10250000404000000000FF00000000000000FF004D
:1025100000000002027C800000000040403F0000FC
:102520000000000601010202040400000000000097
:1025300000000000542500080000002034000000C6
:102540006C010008882500083400002014080000F1
:102550008801000800A24A040000000000000000FA
:102560000102030406070809000000000102030439
:10257000010203040607080902040608000000001F
:08258000000000000000000053
:0400000508000131BD
:00000001FF
